{
  "_format": "hh-sol-artifact-1",
  "contractName": "MAKUToken",
  "sourceName": "contracts/MAKUToken.sol",
  "abi": [
    {
      "inputs": [
        {
          "internalType": "uint256",
          "name": "_initialSupply",
          "type": "uint256"
        }
      ],
      "stateMutability": "nonpayable",
      "type": "constructor"
    },
    {
      "anonymous": false,
      "inputs": [
        {
          "indexed": true,
          "internalType": "address",
          "name": "owner",
          "type": "address"
        },
        {
          "indexed": true,
          "internalType": "address",
          "name": "spender",
          "type": "address"
        },
        {
          "indexed": false,
          "internalType": "uint256",
          "name": "value",
          "type": "uint256"
        }
      ],
      "name": "Approval",
      "type": "event"
    },
    {
      "anonymous": false,
      "inputs": [
        {
          "indexed": true,
          "internalType": "address",
          "name": "user",
          "type": "address"
        },
        {
          "indexed": false,
          "internalType": "uint256",
          "name": "amount",
          "type": "uint256"
        }
      ],
      "name": "CashbackClaimed",
      "type": "event"
    },
    {
      "anonymous": false,
      "inputs": [
        {
          "indexed": true,
          "internalType": "address",
          "name": "user",
          "type": "address"
        },
        {
          "indexed": false,
          "internalType": "uint256",
          "name": "amount",
          "type": "uint256"
        },
        {
          "indexed": false,
          "internalType": "uint256",
          "name": "bookingAmount",
          "type": "uint256"
        }
      ],
      "name": "CashbackEarned",
      "type": "event"
    },
    {
      "anonymous": false,
      "inputs": [
        {
          "indexed": false,
          "internalType": "uint256",
          "name": "oldRate",
          "type": "uint256"
        },
        {
          "indexed": false,
          "internalType": "uint256",
          "name": "newRate",
          "type": "uint256"
        }
      ],
      "name": "CashbackRateUpdated",
      "type": "event"
    },
    {
      "anonymous": false,
      "inputs": [
        {
          "indexed": true,
          "internalType": "address",
          "name": "from",
          "type": "address"
        },
        {
          "indexed": true,
          "internalType": "address",
          "name": "to",
          "type": "address"
        },
        {
          "indexed": false,
          "internalType": "uint256",
          "name": "value",
          "type": "uint256"
        }
      ],
      "name": "Transfer",
      "type": "event"
    },
    {
      "inputs": [],
      "name": "MAX_CASHBACK_RATE",
      "outputs": [
        {
          "internalType": "uint256",
          "name": "",
          "type": "uint256"
        }
      ],
      "stateMutability": "view",
      "type": "function"
    },
    {
      "inputs": [
        {
          "internalType": "address",
          "name": "user",
          "type": "address"
        },
        {
          "internalType": "uint256",
          "name": "bookingAmount",
          "type": "uint256"
        }
      ],
      "name": "addCashback",
      "outputs": [],
      "stateMutability": "nonpayable",
      "type": "function"
    },
    {
      "inputs": [
        {
          "internalType": "address",
          "name": "",
          "type": "address"
        },
        {
          "internalType": "address",
          "name": "",
          "type": "address"
        }
      ],
      "name": "allowance",
      "outputs": [
        {
          "internalType": "uint256",
          "name": "",
          "type": "uint256"
        }
      ],
      "stateMutability": "view",
      "type": "function"
    },
    {
      "inputs": [
        {
          "internalType": "address",
          "name": "_spender",
          "type": "address"
        },
        {
          "internalType": "uint256",
          "name": "_value",
          "type": "uint256"
        }
      ],
      "name": "approve",
      "outputs": [
        {
          "internalType": "bool",
          "name": "success",
          "type": "bool"
        }
      ],
      "stateMutability": "nonpayable",
      "type": "function"
    },
    {
      "inputs": [
        {
          "internalType": "address",
          "name": "",
          "type": "address"
        }
      ],
      "name": "balanceOf",
      "outputs": [
        {
          "internalType": "uint256",
          "name": "",
          "type": "uint256"
        }
      ],
      "stateMutability": "view",
      "type": "function"
    },
    {
      "inputs": [],
      "name": "cashbackRate",
      "outputs": [
        {
          "internalType": "uint256",
          "name": "",
          "type": "uint256"
        }
      ],
      "stateMutability": "view",
      "type": "function"
    },
    {
      "inputs": [],
      "name": "claimCashback",
      "outputs": [],
      "stateMutability": "nonpayable",
      "type": "function"
    },
    {
      "inputs": [],
      "name": "decimals",
      "outputs": [
        {
          "internalType": "uint8",
          "name": "",
          "type": "uint8"
        }
      ],
      "stateMutability": "view",
      "type": "function"
    },
    {
      "inputs": [
        {
          "internalType": "address",
          "name": "user",
          "type": "address"
        }
      ],
      "name": "getPendingCashback",
      "outputs": [
        {
          "internalType": "uint256",
          "name": "",
          "type": "uint256"
        }
      ],
      "stateMutability": "view",
      "type": "function"
    },
    {
      "inputs": [],
      "name": "name",
      "outputs": [
        {
          "internalType": "string",
          "name": "",
          "type": "string"
        }
      ],
      "stateMutability": "view",
      "type": "function"
    },
    {
      "inputs": [],
      "name": "owner",
      "outputs": [
        {
          "internalType": "address",
          "name": "",
          "type": "address"
        }
      ],
      "stateMutability": "view",
      "type": "function"
    },
    {
      "inputs": [
        {
          "internalType": "address",
          "name": "",
          "type": "address"
        }
      ],
      "name": "pendingCashback",
      "outputs": [
        {
          "internalType": "uint256",
          "name": "",
          "type": "uint256"
        }
      ],
      "stateMutability": "view",
      "type": "function"
    },
    {
      "inputs": [
        {
          "internalType": "uint256",
          "name": "_rate",
          "type": "uint256"
        }
      ],
      "name": "setCashbackRate",
      "outputs": [],
      "stateMutability": "nonpayable",
      "type": "function"
    },
    {
      "inputs": [],
      "name": "symbol",
      "outputs": [
        {
          "internalType": "string",
          "name": "",
          "type": "string"
        }
      ],
      "stateMutability": "view",
      "type": "function"
    },
    {
      "inputs": [],
      "name": "totalSupply",
      "outputs": [
        {
          "internalType": "uint256",
          "name": "",
          "type": "uint256"
        }
      ],
      "stateMutability": "view",
      "type": "function"
    },
    {
      "inputs": [
        {
          "internalType": "address",
          "name": "_to",
          "type": "address"
        },
        {
          "internalType": "uint256",
          "name": "_value",
          "type": "uint256"
        }
      ],
      "name": "transfer",
      "outputs": [
        {
          "internalType": "bool",
          "name": "success",
          "type": "bool"
        }
      ],
      "stateMutability": "nonpayable",
      "type": "function"
    },
    {
      "inputs": [
        {
          "internalType": "address",
          "name": "_from",
          "type": "address"
        },
        {
          "internalType": "address",
          "name": "_to",
          "type": "address"
        },
        {
          "internalType": "uint256",
          "name": "_value",
          "type": "uint256"
        }
      ],
      "name": "transferFrom",
      "outputs": [
        {
          "internalType": "bool",
          "name": "success",
          "type": "bool"
        }
      ],
      "stateMutability": "nonpayable",
      "type": "function"
    },
    {
      "inputs": [
        {
          "internalType": "address",
          "name": "newOwner",
          "type": "address"
        }
      ],
      "name": "transferOwnership",
      "outputs": [],
      "stateMutability": "nonpayable",
      "type": "function"
    }
  ],
  "bytecode": "0x60c0604052601160809081527026a0a5aa902a3930bb32b6102a37b5b2b760791b60a052600090620000329082620001de565b506040805180820190915260048152634d414b5560e01b60208201526001906200005d9082620001de565b506002805460ff1916601217905560646005553480156200007d57600080fd5b506040516200118038038062001180833981016040819052620000a091620002aa565b600480546001600160a01b03191633179055600254620000c59060ff16600a620003d9565b620000d19082620003f1565b6003819055600480546001600160a01b03908116600090815260066020908152604080832086905593549351948552929091169290917fddf252ad1be2c89b69c2b068fc378daa952ba7f163c4a11628f55a4df523b3ef910160405180910390a3506200040b565b634e487b7160e01b600052604160045260246000fd5b600181811c908216806200016457607f821691505b6020821081036200018557634e487b7160e01b600052602260045260246000fd5b50919050565b601f821115620001d957600081815260208120601f850160051c81016020861015620001b45750805b601f850160051c820191505b81811015620001d557828155600101620001c0565b5050505b505050565b81516001600160401b03811115620001fa57620001fa62000139565b62000212816200020b84546200014f565b846200018b565b602080601f8311600181146200024a5760008415620002315750858301515b600019600386901b1c1916600185901b178555620001d5565b600085815260208120601f198616915b828110156200027b578886015182559484019460019091019084016200025a565b50858210156200029a5787850151600019600388901b60f8161c191681555b5050505050600190811b01905550565b600060208284031215620002bd57600080fd5b5051919050565b634e487b7160e01b600052601160045260246000fd5b600181815b808511156200031b578160001904821115620002ff57620002ff620002c4565b808516156200030d57918102915b93841c9390800290620002df565b509250929050565b6000826200033457506001620003d3565b816200034357506000620003d3565b81600181146200035c5760028114620003675762000387565b6001915050620003d3565b60ff8411156200037b576200037b620002c4565b50506001821b620003d3565b5060208310610133831016604e8410600b8410161715620003ac575081810a620003d3565b620003b88383620002da565b8060001904821115620003cf57620003cf620002c4565b0290505b92915050565b6000620003ea60ff84168362000323565b9392505050565b8082028115828204841417620003d357620003d3620002c4565b610d65806200041b6000396000f3fe608060405234801561001057600080fd5b50600436106101165760003560e01c8063867c89ee116100a257806395d89b411161007157806395d89b41146102725780639c7bc08e1461027a578063a9059cbb14610283578063dd62ed3e14610296578063f2fde38b146102c157600080fd5b8063867c89ee146101eb5780638687b381146102145780638c7b6e38146102345780638da5cb5b1461024757600080fd5b806323b872dd116100e957806323b872dd1461017c578063313ce5671461018f57806370a08231146101ae57806370faad32146101ce57806381d60b64146101d857600080fd5b806306fdde031461011b578063095ea7b31461013957806317d7865c1461015c57806318160ddd14610173575b600080fd5b6101236102d4565b6040516101309190610b0b565b60405180910390f35b61014c610147366004610b75565b610362565b6040519015158152602001610130565b6101656103e881565b604051908152602001610130565b61016560035481565b61014c61018a366004610b9f565b6103cf565b60025461019c9060ff1681565b60405160ff9091168152602001610130565b6101656101bc366004610bdb565b60066020526000908152604090205481565b6101d66105d0565b005b6101d66101e6366004610b75565b61076a565b6101656101f9366004610bdb565b6001600160a01b031660009081526008602052604090205490565b610165610222366004610bdb565b60086020526000908152604090205481565b6101d6610242366004610bfd565b610879565b60045461025a906001600160a01b031681565b6040516001600160a01b039091168152602001610130565b61012361093a565b61016560055481565b61014c610291366004610b75565b610947565b6101656102a4366004610c16565b600760209081526000928352604080842090915290825290205481565b6101d66102cf366004610bdb565b610a75565b600080546102e190610c49565b80601f016020809104026020016040519081016040528092919081815260200182805461030d90610c49565b801561035a5780601f1061032f5761010080835404028352916020019161035a565b820191906000526020600020905b81548152906001019060200180831161033d57829003601f168201915b505050505081565b3360008181526007602090815260408083206001600160a01b038716808552925280832085905551919290917f8c5be1e5ebec7d5bd14f71427d1e84f3dd0314c0f7b2291e5b200ac8c7c3b925906103bd9086815260200190565b60405180910390a35060015b92915050565b60006001600160a01b03831661041e5760405162461bcd60e51b815260206004820152600f60248201526e496e76616c6964206164647265737360881b60448201526064015b60405180910390fd5b6001600160a01b03841660009081526006602052604090205482111561047d5760405162461bcd60e51b8152602060048201526014602482015273496e73756666696369656e742062616c616e636560601b6044820152606401610415565b6001600160a01b03841660009081526007602090815260408083203384529091529020548211156104e55760405162461bcd60e51b8152602060048201526012602482015271105b1b1bddd85b98d948195e18d95959195960721b6044820152606401610415565b6001600160a01b0384166000908152600660205260408120805484929061050d908490610c99565b90915550506001600160a01b0383166000908152600660205260408120805484929061053a908490610cac565b90915550506001600160a01b038416600090815260076020908152604080832033845290915281208054849290610572908490610c99565b92505081905550826001600160a01b0316846001600160a01b03167fddf252ad1be2c89b69c2b068fc378daa952ba7f163c4a11628f55a4df523b3ef846040516105be91815260200190565b60405180910390a35060019392505050565b33600090815260086020526040902054806106235760405162461bcd60e51b81526020600482015260136024820152724e6f2070656e64696e6720636173686261636b60681b6044820152606401610415565b6004546001600160a01b031660009081526006602052604090205481111561068d5760405162461bcd60e51b815260206004820152601d60248201527f496e73756666696369656e7420636f6e74726163742062616c616e63650000006044820152606401610415565b3360009081526008602090815260408083208390556004546001600160a01b031683526006909152812080548392906106c7908490610c99565b909155505033600090815260066020526040812080548392906106eb908490610cac565b909155505060045460405182815233916001600160a01b0316907fddf252ad1be2c89b69c2b068fc378daa952ba7f163c4a11628f55a4df523b3ef9060200160405180910390a360405181815233907fdfbec0477bd6ec4ed511951f322a036776fa0d097d957ee84e1d1ac2c00558b29060200160405180910390a250565b6004546001600160a01b031633146107945760405162461bcd60e51b815260040161041590610cbf565b6001600160a01b0382166107e15760405162461bcd60e51b8152602060048201526014602482015273496e76616c69642075736572206164647265737360601b6044820152606401610415565b6000612710600554836107f49190610cf6565b6107fe9190610d0d565b6001600160a01b03841660009081526008602052604081208054929350839290919061082b908490610cac565b909155505060408051828152602081018490526001600160a01b038516917fcf370cb3e90a35669bfc8ebdb89d012096ca574ad4ce1d281592caf29e7a1907910160405180910390a2505050565b6004546001600160a01b031633146108a35760405162461bcd60e51b815260040161041590610cbf565b6103e88111156108f55760405162461bcd60e51b815260206004820152601a60248201527f526174652065786365656473206d6178696d756d2028313025290000000000006044820152606401610415565b600580549082905560408051828152602081018490527fcfc83c9b64ff6e3286f17245a52d0fb92bd366166768d612bb1b8b476447889c910160405180910390a15050565b600180546102e190610c49565b60006001600160a01b0383166109915760405162461bcd60e51b815260206004820152600f60248201526e496e76616c6964206164647265737360881b6044820152606401610415565b336000908152600660205260409020548211156109e75760405162461bcd60e51b8152602060048201526014602482015273496e73756666696369656e742062616c616e636560601b6044820152606401610415565b3360009081526006602052604081208054849290610a06908490610c99565b90915550506001600160a01b03831660009081526006602052604081208054849290610a33908490610cac565b90915550506040518281526001600160a01b0384169033907fddf252ad1be2c89b69c2b068fc378daa952ba7f163c4a11628f55a4df523b3ef906020016103bd565b6004546001600160a01b03163314610a9f5760405162461bcd60e51b815260040161041590610cbf565b6001600160a01b038116610ae95760405162461bcd60e51b815260206004820152601160248201527024b73b30b634b2103732bb9037bbb732b960791b6044820152606401610415565b600480546001600160a01b0319166001600160a01b0392909216919091179055565b600060208083528351808285015260005b81811015610b3857858101830151858201604001528201610b1c565b506000604082860101526040601f19601f8301168501019250505092915050565b80356001600160a01b0381168114610b7057600080fd5b919050565b60008060408385031215610b8857600080fd5b610b9183610b59565b946020939093013593505050565b600080600060608486031215610bb457600080fd5b610bbd84610b59565b9250610bcb60208501610b59565b9150604084013590509250925092565b600060208284031215610bed57600080fd5b610bf682610b59565b9392505050565b600060208284031215610c0f57600080fd5b5035919050565b60008060408385031215610c2957600080fd5b610c3283610b59565b9150610c4060208401610b59565b90509250929050565b600181811c90821680610c5d57607f821691505b602082108103610c7d57634e487b7160e01b600052602260045260246000fd5b50919050565b634e487b7160e01b600052601160045260246000fd5b818103818111156103c9576103c9610c83565b808201808211156103c9576103c9610c83565b60208082526018908201527f4f6e6c79206f776e65722063616e2063616c6c20746869730000000000000000604082015260600190565b80820281158282048414176103c9576103c9610c83565b600082610d2a57634e487b7160e01b600052601260045260246000fd5b50049056fea2646970667358221220feb126b4f7c93b91ce07746a655f3236c3f2fdadf787f3190f18e2c3e7e5d4b064736f6c63430008140033",
  "linkReferences": {},
  "deployedLinkReferences": {}
}