{
  "_format": "hh-sol-artifact-1",
  "contractName": "MAKUMembership",
  "sourceName": "contracts/MAKUMembership.sol",
  "abi": [
    {
      "inputs": [],
      "stateMutability": "nonpayable",
      "type": "constructor"
    },
    {
      "anonymous": false,
      "inputs": [
        {
          "indexed": true,
          "internalType": "address",
          "name": "owner",
          "type": "address"
        },
        {
          "indexed": true,
          "internalType": "address",
          "name": "approved",
          "type": "address"
        },
        {
          "indexed": true,
          "internalType": "uint256",
          "name": "tokenId",
          "type": "uint256"
        }
      ],
      "name": "Approval",
      "type": "event"
    },
    {
      "anonymous": false,
      "inputs": [
        {
          "indexed": true,
          "internalType": "address",
          "name": "owner",
          "type": "address"
        },
        {
          "indexed": true,
          "internalType": "address",
          "name": "operator",
          "type": "address"
        },
        {
          "indexed": false,
          "internalType": "bool",
          "name": "approved",
          "type": "bool"
        }
      ],
      "name": "ApprovalForAll",
      "type": "event"
    },
    {
      "anonymous": false,
      "inputs": [
        {
          "indexed": true,
          "internalType": "address",
          "name": "to",
          "type": "address"
        },
        {
          "indexed": true,
          "internalType": "uint256",
          "name": "tokenId",
          "type": "uint256"
        },
        {
          "indexed": false,
          "internalType": "enum MAKUMembership.Tier",
          "name": "tier",
          "type": "uint8"
        },
        {
          "indexed": false,
          "internalType": "uint256",
          "name": "cashbackRate",
          "type": "uint256"
        }
      ],
      "name": "MembershipMinted",
      "type": "event"
    },
    {
      "anonymous": false,
      "inputs": [
        {
          "indexed": true,
          "internalType": "address",
          "name": "buyer",
          "type": "address"
        },
        {
          "indexed": true,
          "internalType": "uint256",
          "name": "tokenId",
          "type": "uint256"
        },
        {
          "indexed": false,
          "internalType": "enum MAKUMembership.Tier",
          "name": "tier",
          "type": "uint8"
        },
        {
          "indexed": false,
          "internalType": "uint256",
          "name": "price",
          "type": "uint256"
        }
      ],
      "name": "MembershipPurchased",
      "type": "event"
    },
    {
      "anonymous": false,
      "inputs": [
        {
          "indexed": true,
          "internalType": "address",
          "name": "from",
          "type": "address"
        },
        {
          "indexed": true,
          "internalType": "address",
          "name": "to",
          "type": "address"
        },
        {
          "indexed": true,
          "internalType": "uint256",
          "name": "tokenId",
          "type": "uint256"
        }
      ],
      "name": "Transfer",
      "type": "event"
    },
    {
      "inputs": [
        {
          "internalType": "address",
          "name": "to",
          "type": "address"
        },
        {
          "internalType": "uint256",
          "name": "tokenId",
          "type": "uint256"
        }
      ],
      "name": "approve",
      "outputs": [],
      "stateMutability": "nonpayable",
      "type": "function"
    },
    {
      "inputs": [
        {
          "internalType": "address",
          "name": "",
          "type": "address"
        }
      ],
      "name": "balanceOf",
      "outputs": [
        {
          "internalType": "uint256",
          "name": "",
          "type": "uint256"
        }
      ],
      "stateMutability": "view",
      "type": "function"
    },
    {
      "inputs": [
        {
          "internalType": "uint256",
          "name": "",
          "type": "uint256"
        }
      ],
      "name": "getApproved",
      "outputs": [
        {
          "internalType": "address",
          "name": "",
          "type": "address"
        }
      ],
      "stateMutability": "view",
      "type": "function"
    },
    {
      "inputs": [
        {
          "internalType": "address",
          "name": "user",
          "type": "address"
        }
      ],
      "name": "getHighestCashbackRate",
      "outputs": [
        {
          "internalType": "uint256",
          "name": "",
          "type": "uint256"
        }
      ],
      "stateMutability": "view",
      "type": "function"
    },
    {
      "inputs": [
        {
          "internalType": "uint256",
          "name": "tokenId",
          "type": "uint256"
        }
      ],
      "name": "getMembership",
      "outputs": [
        {
          "internalType": "enum MAKUMembership.Tier",
          "name": "tier",
          "type": "uint8"
        },
        {
          "internalType": "uint256",
          "name": "cashbackRate",
          "type": "uint256"
        },
        {
          "internalType": "uint256",
          "name": "mintedAt",
          "type": "uint256"
        },
        {
          "internalType": "string",
          "name": "metadataURI",
          "type": "string"
        }
      ],
      "stateMutability": "view",
      "type": "function"
    },
    {
      "inputs": [
        {
          "internalType": "enum MAKUMembership.Tier",
          "name": "tier",
          "type": "uint8"
        }
      ],
      "name": "getTierInfo",
      "outputs": [
        {
          "internalType": "uint256",
          "name": "cashbackRate",
          "type": "uint256"
        },
        {
          "internalType": "uint256",
          "name": "price",
          "type": "uint256"
        },
        {
          "internalType": "uint256",
          "name": "bookingsRequired",
          "type": "uint256"
        }
      ],
      "stateMutability": "view",
      "type": "function"
    },
    {
      "inputs": [
        {
          "internalType": "address",
          "name": "",
          "type": "address"
        },
        {
          "internalType": "address",
          "name": "",
          "type": "address"
        }
      ],
      "name": "isApprovedForAll",
      "outputs": [
        {
          "internalType": "bool",
          "name": "",
          "type": "bool"
        }
      ],
      "stateMutability": "view",
      "type": "function"
    },
    {
      "inputs": [
        {
          "internalType": "uint256",
          "name": "",
          "type": "uint256"
        }
      ],
      "name": "memberships",
      "outputs": [
        {
          "internalType": "enum MAKUMembership.Tier",
          "name": "tier",
          "type": "uint8"
        },
        {
          "internalType": "uint256",
          "name": "cashbackRate",
          "type": "uint256"
        },
        {
          "internalType": "uint256",
          "name": "mintedAt",
          "type": "uint256"
        },
        {
          "internalType": "string",
          "name": "metadataURI",
          "type": "string"
        }
      ],
      "stateMutability": "view",
      "type": "function"
    },
    {
      "inputs": [
        {
          "internalType": "address",
          "name": "to",
          "type": "address"
        },
        {
          "internalType": "enum MAKUMembership.Tier",
          "name": "tier",
          "type": "uint8"
        },
        {
          "internalType": "string",
          "name": "metadataURI",
          "type": "string"
        }
      ],
      "name": "mintMembership",
      "outputs": [
        {
          "internalType": "uint256",
          "name": "",
          "type": "uint256"
        }
      ],
      "stateMutability": "nonpayable",
      "type": "function"
    },
    {
      "inputs": [],
      "name": "name",
      "outputs": [
        {
          "internalType": "string",
          "name": "",
          "type": "string"
        }
      ],
      "stateMutability": "view",
      "type": "function"
    },
    {
      "inputs": [],
      "name": "owner",
      "outputs": [
        {
          "internalType": "address",
          "name": "",
          "type": "address"
        }
      ],
      "stateMutability": "view",
      "type": "function"
    },
    {
      "inputs": [
        {
          "internalType": "uint256",
          "name": "",
          "type": "uint256"
        }
      ],
      "name": "ownerOf",
      "outputs": [
        {
          "internalType": "address",
          "name": "",
          "type": "address"
        }
      ],
      "stateMutability": "view",
      "type": "function"
    },
    {
      "inputs": [
        {
          "internalType": "enum MAKUMembership.Tier",
          "name": "tier",
          "type": "uint8"
        },
        {
          "internalType": "string",
          "name": "metadataURI",
          "type": "string"
        }
      ],
      "name": "purchaseMembership",
      "outputs": [
        {
          "internalType": "uint256",
          "name": "",
          "type": "uint256"
        }
      ],
      "stateMutability": "payable",
      "type": "function"
    },
    {
      "inputs": [
        {
          "internalType": "address",
          "name": "operator",
          "type": "address"
        },
        {
          "internalType": "bool",
          "name": "approved",
          "type": "bool"
        }
      ],
      "name": "setApprovalForAll",
      "outputs": [],
      "stateMutability": "nonpayable",
      "type": "function"
    },
    {
      "inputs": [],
      "name": "symbol",
      "outputs": [
        {
          "internalType": "string",
          "name": "",
          "type": "string"
        }
      ],
      "stateMutability": "view",
      "type": "function"
    },
    {
      "inputs": [
        {
          "internalType": "enum MAKUMembership.Tier",
          "name": "",
          "type": "uint8"
        }
      ],
      "name": "tierBookingRequirements",
      "outputs": [
        {
          "internalType": "uint256",
          "name": "",
          "type": "uint256"
        }
      ],
      "stateMutability": "view",
      "type": "function"
    },
    {
      "inputs": [
        {
          "internalType": "enum MAKUMembership.Tier",
          "name": "",
          "type": "uint8"
        }
      ],
      "name": "tierCashbackRates",
      "outputs": [
        {
          "internalType": "uint256",
          "name": "",
          "type": "uint256"
        }
      ],
      "stateMutability": "view",
      "type": "function"
    },
    {
      "inputs": [
        {
          "internalType": "enum MAKUMembership.Tier",
          "name": "",
          "type": "uint8"
        }
      ],
      "name": "tierPrices",
      "outputs": [
        {
          "internalType": "uint256",
          "name": "",
          "type": "uint256"
        }
      ],
      "stateMutability": "view",
      "type": "function"
    },
    {
      "inputs": [
        {
          "internalType": "address",
          "name": "user",
          "type": "address"
        }
      ],
      "name": "tokensOfOwner",
      "outputs": [
        {
          "internalType": "uint256[]",
          "name": "",
          "type": "uint256[]"
        }
      ],
      "stateMutability": "view",
      "type": "function"
    },
    {
      "inputs": [
        {
          "internalType": "address",
          "name": "from",
          "type": "address"
        },
        {
          "internalType": "address",
          "name": "to",
          "type": "address"
        },
        {
          "internalType": "uint256",
          "name": "tokenId",
          "type": "uint256"
        }
      ],
      "name": "transferFrom",
      "outputs": [],
      "stateMutability": "nonpayable",
      "type": "function"
    },
    {
      "inputs": [
        {
          "internalType": "address",
          "name": "newOwner",
          "type": "address"
        }
      ],
      "name": "transferOwnership",
      "outputs": [],
      "stateMutability": "nonpayable",
      "type": "function"
    },
    {
      "inputs": [
        {
          "internalType": "enum MAKUMembership.Tier",
          "name": "tier",
          "type": "uint8"
        },
        {
          "internalType": "uint256",
          "name": "newPrice",
          "type": "uint256"
        }
      ],
      "name": "updateTierPrice",
      "outputs": [],
      "stateMutability": "nonpayable",
      "type": "function"
    },
    {
      "inputs": [],
      "name": "withdraw",
      "outputs": [],
      "stateMutability": "nonpayable",
      "type": "function"
    },
    {
      "stateMutability": "payable",
      "type": "receive"
    }
  ],
  "bytecode": "0x60c0604052600f60809081526e04d414b55204d656d6265727368697608c1b60a052600090620000309082620002f9565b506040805180820190915260058152644d414b554d60d81b60208201526001906200005c9082620002f9565b503480156200006a57600080fd5b50600280546001600160a01b0319163317905560647f17ef568e3e12ab5b9c7254a8d58478811de00f9e6eb34345acd53bf8fd09d3ec81905561012c7fabd6e7cb50984ff9c2f3e18a2660c3353dadf4e3291deeb275dae2cd1e44fe05556102587f91da3fd0782e51c6b3986e9e672fd566868e71f3dbc2d6c2cd6fbb3e361af2a7556103e87f2e174c10e159ea99b867ce3205125c24a42d128804e4070ed6fcc8cc98166aa05560007f05b8ccbb9d4d8fb16ea74ce3c29a41f1b461fbdaff4714a0d9a8eb05499746bc819055662386f26fc100007f1471eb6eb2c5e789fc3de43f8ce62938c7d1836ec861730447e2ada8fd81017b55666a94d74f4300007f89832631fb3c3307a103ba2c84ab569c64d6182a18893dcd163f0f1c2090733a5567016345785d8a00007fa9bc9a3a348c357ba16b37005d7e6b3236198c0e939f4af8c5f19b8deeb8ebc055600660205260017f54cdd369e4e8a8515e52ca72ec816c2101831ad1f18bf44102ed171459c9b4f855600a7f3e5fec24aa4dc4e5aee2e025e51e1392c72a2500577559fae9665c6d52bd6a315560327f8819ef417987f8ae7a81f42cdfb18815282fe989326fbff903d13cf0e03ace2955600390527f75f96ab15d697e93042dc45b5c896c4b27e89bb6eaf39475c5c371cb2513f7d255620003c5565b634e487b7160e01b600052604160045260246000fd5b600181811c908216806200027f57607f821691505b602082108103620002a057634e487b7160e01b600052602260045260246000fd5b50919050565b601f821115620002f457600081815260208120601f850160051c81016020861015620002cf5750805b601f850160051c820191505b81811015620002f057828155600101620002db565b5050505b505050565b81516001600160401b0381111562000315576200031562000254565b6200032d816200032684546200026a565b84620002a6565b602080601f8311600181146200036557600084156200034c5750858301515b600019600386901b1c1916600185901b178555620002f0565b600085815260208120601f198616915b82811015620003965788860151825594840194600190910190840162000375565b5085821015620003b55787850151600019600388901b60f8161c191681555b5050505050600190811b01905550565b61189980620003d56000396000f3fe6080604052600436106101445760003560e01c80637ca65ea6116100b6578063b4fad6f81161006f578063b4fad6f8146103fe578063cbdf349d1461042b578063ce6d56dc14610458578063e82f8f9214610485578063e985e9c514610498578063f2fde38b146104e357600080fd5b80637ca65ea6146103215780637ed85ff3146103415780638462151c1461037c5780638da5cb5b146103a957806395d89b41146103c9578063a22cb465146103de57600080fd5b80632fad3232116101085780632fad323214610239578063321621d71461025957806338fbf2c6146102895780633ccfd60b146102a95780636352211e146102be57806370a08231146102f457600080fd5b806306fdde0314610150578063081812fc1461017b578063095ea7b3146101c95780631092fead146101eb57806323b872dd1461021957600080fd5b3661014b57005b600080fd5b34801561015c57600080fd5b50610165610503565b60405161017291906112a7565b60405180910390f35b34801561018757600080fd5b506101b16101963660046112c1565b6009602052600090815260409020546001600160a01b031681565b6040516001600160a01b039091168152602001610172565b3480156101d557600080fd5b506101e96101e43660046112f6565b610591565b005b3480156101f757600080fd5b5061020b6102063660046113d2565b610678565b604051908152602001610172565b34801561022557600080fd5b506101e9610234366004611430565b6106b8565b34801561024557600080fd5b506101e961025436600461146c565b610977565b34801561026557600080fd5b506102796102743660046112c1565b6109de565b60405161017294939291906114c0565b34801561029557600080fd5b506102796102a43660046112c1565b610a95565b3480156102b557600080fd5b506101e9610baf565b3480156102ca57600080fd5b506101b16102d93660046112c1565b6007602052600090815260409020546001600160a01b031681565b34801561030057600080fd5b5061020b61030f3660046114f6565b60086020526000908152604090205481565b34801561032d57600080fd5b5061020b61033c3660046114f6565b610c52565b34801561034d57600080fd5b5061036161035c366004611511565b610d31565b60408051938452602084019290925290820152606001610172565b34801561038857600080fd5b5061039c6103973660046114f6565b610de5565b604051610172919061152c565b3480156103b557600080fd5b506002546101b1906001600160a01b031681565b3480156103d557600080fd5b50610165610e51565b3480156103ea57600080fd5b506101e96103f9366004611570565b610e5e565b34801561040a57600080fd5b5061020b610419366004611511565b60056020526000908152604090205481565b34801561043757600080fd5b5061020b610446366004611511565b60046020526000908152604090205481565b34801561046457600080fd5b5061020b610473366004611511565b60066020526000908152604090205481565b61020b6104933660046115ac565b610eca565b3480156104a457600080fd5b506104d36104b33660046115fa565b600a60209081526000928352604080842090915290825290205460ff1681565b6040519015158152602001610172565b3480156104ef57600080fd5b506101e96104fe3660046114f6565b610fe9565b600080546105109061162d565b80601f016020809104026020016040519081016040528092919081815260200182805461053c9061162d565b80156105895780601f1061055e57610100808354040283529160200191610589565b820191906000526020600020905b81548152906001019060200180831161056c57829003601f168201915b505050505081565b6000818152600760205260409020546001600160a01b0316338114806105da57506001600160a01b0381166000908152600a6020908152604080832033845290915290205460ff165b61061c5760405162461bcd60e51b815260206004820152600e60248201526d139bdd08185d5d1a1bdc9a5e995960921b60448201526064015b60405180910390fd5b60008281526009602052604080822080546001600160a01b0319166001600160a01b0387811691821790925591518593918516917f8c5be1e5ebec7d5bd14f71427d1e84f3dd0314c0f7b2291e5b200ac8c7c3b92591a4505050565b6002546000906001600160a01b031633146106a55760405162461bcd60e51b815260040161061390611667565b6106b084848461105b565b949350505050565b6001600160a01b0382166106de5760405162461bcd60e51b81526004016106139061168b565b6000818152600760205260409020546001600160a01b038481169116146107335760405162461bcd60e51b81526020600482015260096024820152682737ba1037bbb732b960b91b6044820152606401610613565b336001600160a01b038416148061076057506000818152600960205260409020546001600160a01b031633145b8061078e57506001600160a01b0383166000908152600a6020908152604080832033845290915290205460ff165b6107cb5760405162461bcd60e51b815260206004820152600e60248201526d139bdd08185d5d1a1bdc9a5e995960921b6044820152606401610613565b6001600160a01b0383166000908152600c60205260408120905b81548110156108995782828281548110610801576108016116b4565b9060005260206000200154036108875781548290610821906001906116e0565b81548110610831576108316116b4565b906000526020600020015482828154811061084e5761084e6116b4565b90600052602060002001819055508180548061086c5761086c6116f3565b60019003818190600052602060002001600090559055610899565b8061089181611709565b9150506107e5565b506001600160a01b03841660009081526008602052604081208054916108be83611722565b9091555050600082815260096020908152604080832080546001600160a01b03199081169091556007835281842080546001600160a01b03891692168217905583526008909152812080549161091383611709565b90915550506001600160a01b038084166000818152600c6020908152604080832080546001810182559084529183209091018690555185938816917fddf252ad1be2c89b69c2b068fc378daa952ba7f163c4a11628f55a4df523b3ef91a450505050565b6002546001600160a01b031633146109a15760405162461bcd60e51b815260040161061390611667565b80600560008460038111156109b8576109b8611488565b60038111156109c9576109c9611488565b81526020810191909152604001600020555050565b600b60205260009081526040902080546001820154600283015460038401805460ff909416949293919291610a129061162d565b80601f0160208091040260200160405190810160405280929190818152602001828054610a3e9061162d565b8015610a8b5780601f10610a6057610100808354040283529160200191610a8b565b820191906000526020600020905b815481529060010190602001808311610a6e57829003601f168201915b5050505050905084565b6000818152600b602052604080822081516080810190925280548392839260609284929190829060ff166003811115610ad057610ad0611488565b6003811115610ae157610ae1611488565b81526020016001820154815260200160028201548152602001600382018054610b099061162d565b80601f0160208091040260200160405190810160405280929190818152602001828054610b359061162d565b8015610b825780601f10610b5757610100808354040283529160200191610b82565b820191906000526020600020905b815481529060010190602001808311610b6557829003601f168201915b505050919092525050815160208301516040840151606090940151919a9099509297509550909350505050565b6002546001600160a01b03163314610bd95760405162461bcd60e51b815260040161061390611667565b4780610c145760405162461bcd60e51b815260206004820152600a6024820152694e6f2062616c616e636560b01b6044820152606401610613565b6002546040516001600160a01b039091169082156108fc029083906000818181858888f19350505050158015610c4e573d6000803e3d6000fd5b5050565b6001600160a01b0381166000908152600c6020908152604080832080548251818502810185019093528083528493830182828015610caf57602002820191906000526020600020905b815481526020019060010190808311610c9b575b505050505090508051600003610cc85750606492915050565b606460005b8251811015610d29576000600b6000858481518110610cee57610cee6116b4565b6020026020010151815260200190815260200160002060010154905082811115610d16578092505b5080610d2181611709565b915050610ccd565b509392505050565b600080600060046000856003811115610d4c57610d4c611488565b6003811115610d5d57610d5d611488565b81526020019081526020016000205460056000866003811115610d8257610d82611488565b6003811115610d9357610d93611488565b81526020019081526020016000205460066000876003811115610db857610db8611488565b6003811115610dc957610dc9611488565b8152602001908152602001600020549250925092509193909250565b6001600160a01b0381166000908152600c6020908152604091829020805483518184028101840190945280845260609392830182828015610e4557602002820191906000526020600020905b815481526020019060010190808311610e31575b50505050509050919050565b600180546105109061162d565b336000818152600a602090815260408083206001600160a01b03871680855290835292819020805460ff191686151590811790915590519081529192917f17307eab39ab6107e8899845ad3d59bd9653f200f220920489ca2b5937696c31910160405180910390a35050565b60008060056000856003811115610ee357610ee3611488565b6003811115610ef457610ef4611488565b815260200190815260200160002054905080341015610f4c5760405162461bcd60e51b8152602060048201526014602482015273125b9cdd59999a58da595b9d081c185e5b595b9d60621b6044820152606401610613565b6000610f5933868661105b565b905081341115610f9b57336108fc610f7184346116e0565b6040518115909202916000818181858888f19350505050158015610f99573d6000803e3d6000fd5b505b80336001600160a01b03167f3ce34c4daa4cc817ecd03b796bfda58751aa15ba8683a597a19d81add1969cfb8785604051610fd7929190611739565b60405180910390a39150505b92915050565b6002546001600160a01b031633146110135760405162461bcd60e51b815260040161061390611667565b6001600160a01b0381166110395760405162461bcd60e51b81526004016106139061168b565b600280546001600160a01b0319166001600160a01b0392909216919091179055565b60006001600160a01b0384166110835760405162461bcd60e51b81526004016106139061168b565b600380546000918261109483611709565b9190505590506000600460008660038111156110b2576110b2611488565b60038111156110c3576110c3611488565b815260208082019290925260409081016000908120548582526007845282822080546001600160a01b0319166001600160a01b038c169081179091558252600890935290812080549293509061111883611709565b90915550506001600160a01b0386166000908152600c60209081526040808320805460018101825590845291909220018390558051608081019091528086600381111561116757611167611488565b815260208082018490524260408084019190915260609092018790526000858152600b9091522081518154829060ff191660018360038111156111ac576111ac611488565b02179055506020820151600182015560408201516002820155606082015160038201906111d990826117a3565b50506040518391506001600160a01b038816906000907fddf252ad1be2c89b69c2b068fc378daa952ba7f163c4a11628f55a4df523b3ef908290a481866001600160a01b03167f6e55d1e60f34b9b33d9c2309e5020b4d5246e723e3f8e56c1a293e8d06dddd6b8784604051611250929190611739565b60405180910390a350949350505050565b6000815180845260005b818110156112875760208185018101518683018201520161126b565b506000602082860101526020601f19601f83011685010191505092915050565b6020815260006112ba6020830184611261565b9392505050565b6000602082840312156112d357600080fd5b5035919050565b80356001600160a01b03811681146112f157600080fd5b919050565b6000806040838503121561130957600080fd5b611312836112da565b946020939093013593505050565b8035600481106112f157600080fd5b634e487b7160e01b600052604160045260246000fd5b600082601f83011261135657600080fd5b813567ffffffffffffffff808211156113715761137161132f565b604051601f8301601f19908116603f011681019082821181831017156113995761139961132f565b816040528381528660208588010111156113b257600080fd5b836020870160208301376000602085830101528094505050505092915050565b6000806000606084860312156113e757600080fd5b6113f0846112da565b92506113fe60208501611320565b9150604084013567ffffffffffffffff81111561141a57600080fd5b61142686828701611345565b9150509250925092565b60008060006060848603121561144557600080fd5b61144e846112da565b925061145c602085016112da565b9150604084013590509250925092565b6000806040838503121561147f57600080fd5b61131283611320565b634e487b7160e01b600052602160045260246000fd5b600481106114bc57634e487b7160e01b600052602160045260246000fd5b9052565b6114ca818661149e565b8360208201528260408201526080606082015260006114ec6080830184611261565b9695505050505050565b60006020828403121561150857600080fd5b6112ba826112da565b60006020828403121561152357600080fd5b6112ba82611320565b6020808252825182820181905260009190848201906040850190845b8181101561156457835183529284019291840191600101611548565b50909695505050505050565b6000806040838503121561158357600080fd5b61158c836112da565b9150602083013580151581146115a157600080fd5b809150509250929050565b600080604083850312156115bf57600080fd5b6115c883611320565b9150602083013567ffffffffffffffff8111156115e457600080fd5b6115f085828601611345565b9150509250929050565b6000806040838503121561160d57600080fd5b611616836112da565b9150611624602084016112da565b90509250929050565b600181811c9082168061164157607f821691505b60208210810361166157634e487b7160e01b600052602260045260246000fd5b50919050565b6020808252600a908201526927b7363c9037bbb732b960b11b604082015260600190565b6020808252600f908201526e496e76616c6964206164647265737360881b604082015260600190565b634e487b7160e01b600052603260045260246000fd5b634e487b7160e01b600052601160045260246000fd5b81810381811115610fe357610fe36116ca565b634e487b7160e01b600052603160045260246000fd5b60006001820161171b5761171b6116ca565b5060010190565b600081611731576117316116ca565b506000190190565b60408101611747828561149e565b8260208301529392505050565b601f82111561179e57600081815260208120601f850160051c8101602086101561177b5750805b601f850160051c820191505b8181101561179a57828155600101611787565b5050505b505050565b815167ffffffffffffffff8111156117bd576117bd61132f565b6117d1816117cb845461162d565b84611754565b602080601f83116001811461180657600084156117ee5750858301515b600019600386901b1c1916600185901b17855561179a565b600085815260208120601f198616915b8281101561183557888601518255948401946001909101908401611816565b50858210156118535787850151600019600388901b60f8161c191681555b5050505050600190811b0190555056fea2646970667358221220be0b5082cd75f399f1e1ba7696b52b959236e510060af4b989ff89902fcb80bb64736f6c63430008140033",
  "linkReferences": {},
  "deployedLinkReferences": {}
}